:080BF8008F1A8E198D188C175D
:100C0000E4F51EF51DF51CF51B781774FF1208B0EE
:060C1000EC4D4E4F70F3A5
:010C160022BB
:100A8F008F0B8E0A8D098C08E4FFFEFDFCAB0BAAC1
:100A9F000AA909A808D312089D4051E4750FBEF5A5
:100AAF000EF50DF50CE4FFFEFDFCAB0FAA0EA90D24
:100ABF00A80CD312089D401AE50F24FFF50FE50E81
:100ACF0034FFF50EE50D34FFF50DE50C34FFF50C95
:100ADF0080D3E50B24FFF50BE50A34FFF50AE50992
:0C0AEF0034FFF509E50834FFF508809C91
:010AFB0022D8
:080C6D0074657374004161001D
:100B60001208CE7BFF7A0C796DE4FDFF120AFC7B44
:100B7000FF7A0C79727D01E4FF1209717B647A19A6
:100B80007D04E4FF120A007FE87E037D007C0012F2
:100B90000A8F120C4B7FD07E077D007C00120A8FDB
:020BA00080C112
:100003000000000000000000002F000000000700B7
:10001300070000147F147F1400242A7F2A12006231
:1000230064081323003649552250000005030000DD
:1000330000001C224100000041221C000014083E65
:1000430008140008083E0808000000A0600000082B
:10005300080808080000606000000020100804027F
:10006300003E5149453E0000427F4000004261513D
:100073004946002141454B31001814127F100027D7
:1000830045454539003C4A4949300001710905039A
:1000930000364949493600064949291E00003636CB
:1000A300000000005636000000081422410000142E
:1000B300141414140000412214080002015109060B
:1000C30000324959513E007C1211127C007F49498C
:1000D3004936003E41414122007F4141221C007FBD
:1000E30049494941007F09090901003E4149497ACB
:1000F300007F0808087F0000417F41000020404145
:100103003F01007F08142241007F40404040007FB0
:10011300020C027F007F0408107F003E4141413EF4
:10012300007F09090906003E4151215E007F09193C
:1001330029460046494949310001017F0101003F39
:100143004040403F001F2040201F003F4038403FB9
:10015300006314081463000708700807006151491D
:10016300454300007F4141000002040810200000C5
:1001730041417F000004020102040040404040402E
:10018300000001020400002054545478007F4844C6
:10019300443800384444442000384444487F0038FD
:1001A3005454541800087E0901020018A4A4A47C26
:1001B300007F080404780000447D400000408084F0
:1001C3007D00007F102844000000417F4000007C38
:1001D30004180478007C0804047800384444443844
:1001E30000FC242424180018242418FC007C080490
:1001F300040800485454542000043F444020003C69
:100203004040207C001C2040201C003C4030403CEF
:10021300004428102844001CA0A0A07C004464547F
:100223004C441414141414140000000000000000C3
:100233000000000000000000000000F800000000C3
:10024300000000333000000000100C06100C060004
:10025300000000000000000040C07840C07840006B
:10026300043F04043F040400007088FC08300000CD
:10027300001820FF211E0000F008F000E018000025
:1002830000211C031E211E0000F0088870000000DE
:100293001E2123241927211010160E000000000030
:1002A3000000000000000000000000E0180402004D
:1002B300000000071820400000020418E0000000BE
:1002C3000040201807000000404080F080404000BC
:1002D3000202010F01020200000000F00000000012
:1002E3000101011F010101000000000000000000E6
:1002F30080B070000000000000000000000000005B
:1003030000010101010101010000000000000000E3
:10031300003030000000000000000000806018047E
:10032300006018060100000000E010080810E0005B
:10033300000F102020100F00001010F80000000024
:100343000020203F2020000000700808088870006B
:1003530000302824222130000030088888483000EB
:100363000018202020110E000000C02010F800000B
:1003730000070424243F240000F8088888080800A4
:100383000019212020110E0000E0108888180000B9
:10039300000F112020110E0000380808C83808008B
:1003A3000000003F0000000000708808088870000B
:1003B300001C222121221C0000E010080810E0008C
:1003C3000000312222110F00000000C0C000000015
:1003D300000000303000000000000080000000003A
:1003E3000000806000000000000080402010080032
:1003F30000010204081020004040404040404000FB
:1004030004040404040404000008102040800000D5
:100413000020100804020100007048080808F000DA
:100423000000003036010000C030C828E810E000AA
:100433000718272423140B000000C038E000000035
:10044300203C23020227382008F88888887000009F
:10045300203F202020110E00C03008080808380073
:10046300071820202010080008F808080810E000EA
:10047300203F202020100F0008F88888E80810008B
:10048300203F20202320180008F88888E80810005F
:10049300203F200003000000C03008080838000097
:1004A30007182020221E020008F808000008F80898
:1004B300203F210101213F20000808F8080800001F
:1004C3000020203F2020000000000808F808080052
:1004D300C08080807F00000008F888C028180800CA
:1004E300203F20012638200008F808000000000003
:1004F300203F20202020300008F8F800F8F80800FA
:10050300203F003F003F200008F830C00008F808F3
:10051300203F200007183F00E01008080810E00003
:100523000F10202020100F0008F808080808F0001A
:10053300203F210101010000E01008080810E0003D
:100543000F18242438504F0008F8888888887000D2
:10055300203F2000030C3020007088080808380072
:100563000038202121221C00180808F80808180068
:100573000000203F2000000008F808000008F808E9
:10058300001F202020201F000878880000C838089A
:10059300000007380E010000F80800F80008F80012
:1005A300033C0700073C03000818688080681808AC
:1005B30020302C03032C30200838C800C83808002A
:1005C3000000203F2000000010080808C838080079
:1005D3002038262120201800000000FE020202001D
:1005E3000000007F40404000000C30C000000000CD
:1005F300000000010638C00000020202FE000000F5
:10060300004040407F00000000000402020204009A
:1006130000000000000000000000000000000000D7
:1006230080808080808080800002020400000000BF
:1006330000000000000000000000808080800000B7
:100643000019242222223F2008F8008080000000A5
:10065300003F112020110E00000000808080000068
:10066300000E112020201100000000808088F80077
:10067300000E112020103F200000808080800000A9
:10068300001F222222221300008080F0888888180D
:100693000020203F20200000000080808080800018
:1006A300006B94949493600008F8008080800000AD
:1006B300203F210000203F20008098980000000088
:1006C3000020203F202000000000008098980000B8
:1006D30000C08080807F000008F8000080808000D8
:1006E300203F24022D302000000808F800000000FD
:1006F3000020203F202000008080808080808000B8
:10070300203F20003F20003F808000808080000049
:10071300203F210000203F200000808080800000D7
:10072300001F202020201F00808000808000000008
:1007330080FFA12020110E00000000808080800037
:10074300000E112020A0FF80808080008080800028
:1007530020203F2120000100000080808080800055
:100763000033242424241900008080E080800000CA
:100773000000001F20200000808000000080800017
:10078300001F202020103F20808080000080808078
:1007930000010E3008060100808000800080808008
:1007A3000F300C030C300F0000808000808080002D
:1007B3000020312E0E312000808080000080808058
:1007C30080818E7018060100008080808080800008
:1007D3000021302C2221300000000000807C020226
:1007E30000000000003F404000000000FF00000048
:1007F30000000000FF0000000002027C80000000F7
:100803000040403F00000000000601010202040412
:080813000000000000000000DD
:050BD100F583E493FF31
:100BD6007E08D2A2C2A4AD061EED6015EF30E70472
:100BE600D2A58002C2A5D2A400C2A4EF25E0FF8050
:010BF600E519
:010BF70022DB
:0D0BA20024B0FF120BAF7F01120BAF7F10CC
:100BAF007E08C2A2C2A4AD061EED6015EF30E704A9
:100BBF00D2A58002C2A5D2A400C2A4EF25E0FF8077
:010BCF00E540
:010BD0002202
:100C1700AC07ED24B0FF120BAFEC54F0C4540F44F3
:0C0C270010FF120BAFEC540FFF020BAFDC
:020C3300AC070C
:100C3500E4FBEB120BA2E4FAAF04120BD60ABA805E
:050C4500F70BBB08EDF8
:010C4A002287
:100C4B00E4FCEC120BA2E4FBE4FF120BD60BBB8013
:050C5B00F70CBC08EDE0
:010C60002271
:1008CE00E4FFD2A4D2A1C2A3000FBF64FBC2A1D287
:1008DE00A37FAE120BAFE4FF120BAA7F40120BAF39
:1008EE007F81120BAF7FCF120BAF7FA1120BAF7FA9
:1008FE00C8120BAF7FA6120BAF7FA8120BAF7F3FB4
:10090E00120BAF7FD3120BAFE4FF120BAF7FD512DA
:10091E000BAF7F80120BAF7FD9120BAF7FF1120B93
:10092E00AF7FDA120BAF7F12120BAF7FDB120BAF62
:10093E007F40120BAF7F20120BAF7F02120BAF7FE7
:10094E008D120BAF7F14120BAF7FA4120BAF7FA6CD
:10095E00120BAF7FAF120BAFE4FF120C33E4FDFFAF
:03096E00020C1761
:0A0AFC008F108D118B128A138914DC
:100B0600E4F515FCF516AB12AA13A9148516827521
:100B1600830012081B604224E0F515E510D3947E8D
:100B26004005E4F5100511AD11AF10120C17E4FCE9
:100B360075F006E515A42403F582E5F03400F58387
:100B4600E5822CF582E43583120BD10CBC06E174E8
:090B5600062510F510051680AD0E
:010B5F002273
:0A0971008F088D098B0A8A0B890C90
:10097B00E4F50DFCF50EAB0AAA0BA90C850E8275DE
:10098B00830012081B606D24E0F50DE508D3947805
:10099B004005E4F5080509AD09AF08120C17E4FC96
:1009AB0075F010E50DA42CF582E435F0F583E582A6
:1009BB00242BF582E5833402120BD10CBC08E1E544
:1009CB000904FDAF08120C17E4FC75F010E50DA43B
:1009DB002CF582E435F0F583E5822433F582E5834B
:1009EB003402120BD10CBC08E174082508F508057C
:0409FB000E0209815E
:0109FF0022D5
:040A00008F088D09C5
:100A0400E4F50FFC7D0AAF03AE02120848ED243072
:100A1400F50E7C007D0AAF03AE021208487C007D0F
:100A24000A120848ED2430F50D7C007D64AF03AE56
:100A3400021208487C007D0A120848ED2430F50CA7
:100A44007C037DE8AF03AE021208487C007D0A12E5
:100A54000848ED2430F50BAE02AF037C277D10125D
:100A640008487C007D0A120848ED2430F50AE4FFAA
:100A7400740A2FF8E6B4300676200FBF04F27B0028
:0B0A84007A00790AAD09AF08020AFCF5
:03000000020C618E
:0C0C6100787FE4F6D8FD75811E020B6060
:10081B00BB010CE58229F582E5833AF583E0225092
:10082B0006E92582F8E622BBFE06E92582F8E222DC
:0D083B00E58229F582E5833AF583E49322F6
:10084800BC000BBE0029EF8DF084FFADF022E4CC94
:10085800F875F008EF2FFFEE33FEEC33FCEE9DEC5D
:10086800984005FCEE9DFE0FD5F0E9E4CEFD22EDA3
:10087800F8F5F0EE8420D21CFEADF075F008EF2FED
:10088800FFED33FD4007985006D5F0F222C398FDDE
:050898000FD5F0EA227B
:10089D00EB9FF5F0EA9E42F0E99D42F0E89C45F0B1
:0108AD002228
:1008AE007401FF3395E0FEFDFC080808E6CF2FF635
:1008BE0018E6CE3EF618E6CD3DF618E6CC3CF6220E
:00000001FF
